:020000040000fa
:080000000002040000000000f2
:020000040000fa
:0400080008030000e9
:020000040000fa
:04000c0008030000e5
:020000040000fa
:0400100008030000e1
:020000040000fa
:0400140008030000dd
:020000040000fa
:0400180008030000d9
:020000040000fa
:04001c0008030000d5
:020000040000fa
:0400200008030000d1
:020000040000fa
:0400240008030000cd
:020000040000fa
:0400280008030000c9
:020000040000fa
:04002c0008030000c5
:020000040000fa
:0400300008030000c1
:020000040000fa
:04003400e4020000e2
:020000040000fa
:0400380008030000b9
:020000040000fa
:04003c0008030000b5
:020000040000fa
:0400400008030000b1
:020000040000fa
:0400440008030000ad
:020000040000fa
:0400480008030000a9
:020000040000fa
:04004c0008030000a5
:020000040000fa
:04005000cc020000de
:020000040000fa
:04005400080300009d
:020000040000fa
:040058000803000099
:020000040000fa
:04005c000803000095
:020000040000fa
:040060000803000091
:020000040000fa
:04006400080300008d
:020000040000fa
:040068000803000089
:020000040000fa
:04006c000803000085
:020000040000fa
:040070000803000081
:020000040000fa
:04007400080300007d
:020000040000fa
:040078000803000079
:020000040000fa
:04007c000803000075
:020000040000fa
:040080000803000071
:020000040000fa
:04008400080300006d
:020000040000fa
:040088000803000069
:020000040000fa
:04008c000803000065
:020000040000fa
:040090000803000061
:020000040000fa
:04009400080300005d
:020000040000fa
:040098000803000059
:020000040000fa
:04009c000803000055
:020000040000fa
:0400a0000803000051
:020000040000fa
:0400a400080300004d
:020000040000fa
:0400a8000803000049
:020000040000fa
:0400ac000803000045
:020000040000fa
:0400b0000803000041
:020000040000fa
:0400b400080300003d
:020000040000fa
:0400b8000803000039
:020000040000fa
:0400bc000803000035
:020000040000fa
:0400c0000803000031
:020000040000fa
:0400c400080300002d
:020000040000fa
:0400c8000803000029
:020000040000fa
:0400cc000803000025
:020000040000fa
:0400d0000803000021
:020000040000fa
:0400d400080300001d
:020000040000fa
:0400d8000803000019
:020000040000fa
:0400dc000803000015
:020000040000fa
:0400e0000803000011
:020000040000fa
:0400e400080300000d
:020000040000fa
:0400e8000803000009
:020000040000fa
:0400ec000803000005
:020000040000fa
:0400f0000803000001
:020000040000fa
:0400f40008030000fd
:020000040000fa
:0400f80008030000f9
:020000040000fa
:0400fc0008030000f5
:020000040000fa
:0401000008030000f0
:020000040000fa
:0401040008030000ec
:020000040000fa
:0401080008030000e8
:020000040000fa
:04010c0008030000e4
:020000040000fa
:0401100008030000e0
:020000040000fa
:0401140008030000dc
:020000040000fa
:0401180008030000d8
:020000040000fa
:04011c0008030000d4
:020000040000fa
:0401200008030000d0
:020000040000fa
:0401240008030000cc
:020000040000fa
:0401280008030000c8
:020000040000fa
:04012c0008030000c4
:020000040000fa
:0401300008030000c0
:020000040000fa
:0401340008030000bc
:020000040000fa
:0401380008030000b8
:020000040000fa
:04013c0008030000b4
:020000040000fa
:0401400008030000b0
:020000040000fa
:0401440008030000ac
:020000040000fa
:0401480008030000a8
:020000040000fa
:0402080008030000e7
:020000040000fa
:04020c0008030000e3
:020000040000fa
:0402100008030000df
:020000040000fa
:0402140008030000db
:020000040000fa
:0402180008030000d7
:020000040000fa
:04021c0008030000d3
:020000040000fa
:0402200008030000cf
:020000040000fa
:0402240008030000cb
:020000040000fa
:0402280008030000c7
:020000040000fa
:04022c0008030000c3
:020000040000fa
:0402300008030000bf
:020000040000fa
:0402340008030000bb
:020000040000fa
:0402380008030000b7
:020000040000fa
:04023c0008030000b3
:020000040000fa
:0402400008030000af
:020000040000fa
:0402440008030000ab
:020000040000fa
:0402480008030000a7
:020000040000fa
:04024c0008030000a3
:020000040000fa
:04025000080300009f
:020000040000fa
:04025400080300009b
:020000040000fa
:040258000803000097
:020000040000fa
:04025c000803000093
:020000040000fa
:04026000080300008f
:020000040000fa
:04026400080300008b
:020000040000fa
:040268000803000087
:020000040000fa
:04026c000803000083
:020000040000fa
:04027000080300007f
:020000040000fa
:04027400080300007b
:020000040000fa
:040278000803000077
:020000040000fa
:04027c000803000073
:020000040000fa
:04028000080300006f
:020000040000fa
:04028400080300006b
:020000040000fa
:040288000803000067
:020000040000fa
:04028c000803000063
:020000040000fa
:04029000080300005f
:020000040000fa
:04029400080300005b
:020000040000fa
:040298000803000057
:020000040000fa
:04029c000803000053
:020000040000fa
:0402a000080300004f
:020000040000fa
:0402a400080300004b
:020000040000fa
:0402a8000803000047
:020000040000fa
:0402ac000803000043
:020000040000fa
:0402b000080300003f
:020000040000fa
:0402b400080300003b
:020000040000fa
:0402b8000803000037
:020000040000fa
:0402bc000803000033
:020000040000fa
:0402c000080300002f
:020000040000fa
:0402c400080300002b
:020000040000fa
:0402c8000803000027
:020000040000fa
:0402cc000803000023
:020000040000fa
:0402d000080300001f
:020000040000fa
:0402d400080300001b
:020000040000fa
:0402d8000803000017
:020000040000fa
:0402dc000803000013
:020000040000fa
:0402e000080300000f
:020000040000fa
:0402e400080300000b
:020000040000fa
:0402e8000803000007
:020000040000fa
:0402ec000803000003
:020000040000fa
:0402f00008030000ff
:020000040000fa
:0402f40008030000fb
:020000040000fa
:0402f80008030000f7
:020000040000fa
:0402fc0008030000f3
:020000040000fa
:0403000008030000ee
:020000040000fa
:0403040008030000ea
:020000040000fa
:0403080008030000e6
:020000040000fa
:04030c0008030000e2
:020000040000fa
:0403100008030000de
:020000040000fa
:0403140008030000da
:020000040000fa
:0403180008030000d6
:020000040000fa
:04031c0008030000d2
:020000040000fa
:0403200008030000ce
:020000040000fa
:0403240008030000ca
:020000040000fa
:0403280008030000c6
:020000040000fa
:04032c0008030000c2
:020000040000fa
:0403300008030000be
:020000040000fa
:0403340008030000ba
:020000040000fa
:0403380008030000b6
:020000040000fa
:04033c0008030000b2
:020000040000fa
:0403400008030000ae
:020000040000fa
:0403440008030000aa
:020000040000fa
:0403480008030000a6
:020000040000fa
:100400002fc620000e7f22000e0188000000000091
:10041000000020000000e000020032000001200087
:1004200020028800140007007b0007000000e000a5
:1004300003003a00a0ec2100010020000200370078
:100440000000200001002000810f70000100320038
:1004500014000700000020000000e000020032004d
:1004600000000200000000002c1f0200000000003d
:100470000040da000000fe004440a900600d2000aa
:100480000000e0000300320000002000a00188000e
:100490004440a800000006008a1f78008b1f7800e7
:1004a0000000060091018800800478000000eb0045
:1004b0001a003700e284440032a0b4009905ba0063
:1004c000e284440032a0b4009906ba00e2844400f9
:1004d00032a0b4000006eb00476fde00fd07b2005b
:1004e000636ce10003003a00ebff07000000eb0043
:1004f0000a003700606ce10004003a00005deb0088
:100500008b05e900fdff3e00040037006168e10053
:10051000010032000086eb000b00070019c7ba008b
:100520001905ba000e04e00003003a000a00e000da
:10053000e0ff3a0000000600fe07b2009e018800be
:100540008a047800f5ff3700395dba008b05e900b1
:100550000c003200295dba008b05e900080032006a
:100560000c00e00003003a00e284440032a0b40032
:10057000f5ff370019ddba008b05e900faff3a00f4
:100580008904e800e184440032a0b40000000600c1
:100590000000000000000000801f78003400f80018
:1005a00000002000a00188000200fa008540a90098
:1005b00040128000000f78000080fa003400f9003b
:1005c0004f00780000400600809fbe003400f80015
:1005d00000002000a00188000000fa0010002000a8
:1005e00080408800a0408000b14080006100400051
:1005f000e0804800a0408800b14088008460a900e5
:100600000080fa003400f9004f00be0000400600f0
:100610000040da000000fe0000000500889fbe00d8
:100620008a9fbe008c1f7800c2000700c9003300fb
:1006300003866c006450e1002e0032006420e1006b
:10064000330032006150e1002f0032006120e100f0
:100650003100320085855500eb07b000090020000d
:1006600008042000050037000804440089844c0079
:100670000a0031000603430087834b00000153004a
:1006800081815b00f8ff33000203be000800a00078
:100690000804440089844c00f6ff3900c639dd00a7
:1006a0008301730001003200130020008904d1008f
:1006b0000884d3000998a300050032000800a700b1
:1006c0000300a0008904d1000884d3008b05e80052
:1006d0008904d1000884d3000001eb000281d2001c
:1006e0005900070001f0a1000cf0a70001f0a000e4
:1006f000a10037006420e100a30032000801be0021
:100700000200be00f7ff37006120e1009e003200ca
:100710006000b800f3ff37000000200001f8270058
:10072000f0ff37000001be006d0007000470a70055
:1007300003f0a1006509b100160032000d0035007c
:100740006828e10006003500f0ff2f00f1ff2700c8
:100750000300e00013003b0001002800000005003a
:1007600000004000818048008502e900fcff3a005b
:1007700008003700f88f420002003c008000eb00c8
:10078000000005008100d1000080d3008502e80050
:10079000fcff3a000300e00002003b006000100094
:1007a000e0801800000006000001be004c000700b9
:1007b0000470a70003f0a10003f8a30013003a009f
:1007c0006509b10010003200090035006928e10018
:1007d0000200350001002800000005000000400074
:1007e000818048008502e900fcff3a000000060015
:1007f000f88f4200050035008100d1000080d30051
:100800008502e800fcff3a00000006008000eb00d3
:10081000000005004f89de008201780026013700c4
:100820006011b800340137000001eb00fb00070045
:10083000040032000200200003f8230001f0a700aa
:10084000980007000000060081002000618055002c
:100850000b003d000b00200061fe2f000100e100b5
:100860001d00340082817100610164008904d1009f
:100870000884d3000000e800faff3a00710020006d
:100880006100640003007000020060000900320093
:1008900061044400e0844c000988a5000500320092
:1008a0008b05e8006808e10002003a008904d100e5
:1008b0000884d300f20f20000258e10005003d003b
:1008c000c75ddd00f907b200898075000800780077
:1008d000000006000bf827008b00780000000500e0
:1008e000c70ade00f107b200f50fb20008003200bf
:1008f000e1cf4200020032000170a0002400050098
:10090000810f70000100320004080500440005005a
:10091000810f700002003a00140005008502e90012
:100920000000400081c04800fcff3b000170a000b7
:10093000240005000004be00e9ff07000003be001c
:100940000405be000200be00e5ff0700844f7500ed
:10095000000006000200be006450e1000500360001
:100960006420e100020036000968a30001003a009b
:100970000800be000160a0004f0678004f05be00d1
:100980004f04be0000000600f0ff2f00f1ff27001b
:10099000f9ff3700889fbe008a9fbe008c1f780039
:1009a000e4ff0700ebff330003866c006450e100b6
:1009b000240032006420e100270032006150e10091
:1009c000220032006120e100210032008b854200cc
:1009d000eb07b1000134b800003ab8000804420047
:1009e00089844a00013ab8000030b800888040008d
:1009f00009014a00040033000000400081804800e3
:100a0000020149008b05e900c909dd00830170007e
:100a10000100320013002000c814de004814dd007d
:100a20004709de001200b200c808de00088470002a
:100a300085ff070001f0a1000cf0a70001f0a00065
:100a4000cdff37006120e100cfff32000801be007a
:100a50000200be00f7ff37006150e100fcff3a00e2
:100a6000c9ff37006022b800060220000000d00055
:100a70008180d2000482d2008582d2000000a000d2
:100a80000202520083825a00030031000202420037
:100a900083824a000000a1000603e900f3ff3a0048
:100aa0000000060003f0a200889fbe008a9fbe00df
:100ab0008c1f78009fff0700a6ff33006450e10001
:100ac0004f0032006420e1005200320003826c00cb
:100ad00007003b000905d0000306d000820f540038
:100ae0000c065d0002003900020032008901780026
:100af000030678008582550004003d000003fd00d8
:100b00008103fd008502ea008b854200840f72009c
:100b100002003b0060001000e08018006011b80087
:100b20000005eb007a28e1000a0039000600780091
:100b3000c75ddd00f707b200878075002d00370024
:100b4000828171000a017800610560008180d10016
:100b50000080d3008502e900f9ff3b000604400055
:100b60008784480002003b0060041400e0841c00fd
:100b70000988a300070032008a8171008281710018
:100b8000610164008904d1000884d3008b05e8006a
:100b9000170037000978a30013003a000b00e000ab
:100ba000130034008b05e9000804440089844c00dc
:100bb0000a4474000978a3000d003a000b00e0001d
:100bc000070034008b05e9000804440089844c00c8
:100bd00001003a000b0020000978a300f7ff320063
:100be0000001eb0002003700828171000a017800e9
:100bf00015ff07000cf0a70001f0a0005eff370012
:100c00006420e10002003a00838f6c005eff330035
:100c10000801be000200be0057ff3700889fbe00db
:100c20008a9fbe000003be002dff070085057800e7
:100c300082815200020020006220e10004003a009c
:100c4000f307b100040035007718e1000400350017
:100c50000600be00140037006000b8000f00370027
:100c6000f50f2000faff2f008502d1000a85d3007e
:100c70008301e900fcff3b00818462000004650001
:100c8000890f7400f2ff32008582ea000a85ea00cb
:100c90008184620000046500ebfe070007f0a700f6
:100ca00001f0a0000081eb000200e0004f05be0053
:100cb0004f04be0000000600881f7800030478007f
:100cc0000300e00007003d0060001000e080180015
:100cd00060011900e081190002003b0001f02d00c5
:100ce000030037000400070008f0a70001f0a0008f
:100cf0004f04780000000600889fbe008a9fbe0057
:100d0000008270000402710004827100260032002b
:100d10000004be000200be006011b8006b09200094
:100d2000950220000182cf000a0039000541b10080
:100d30000082cf00070039000541b1000982cf00d1
:100d4000040039000541b1000882cf0001003900dc
:100d50000541b10005425200120032000a003b007a
:100d600082817100610164008100d1000080d300a4
:100d70008984d3000884d3008b05e8000442e8008e
:100d8000f7ff3a00070037000804440089844c004c
:100d900000004800818048008b05e9000442e9001a
:100da000f9ff3a00a8fe07004f05be004f04be0041
:100db000000006008001780002003700b159780079
:100dc0000201e9000200e000fcff3a00000006001a
:100dd0008001780002003700815978000201e900a3
:100de0000200e000fcff3a0000000600000178006d
:100df000820178003204e000fdff3a000301780030
:100e0000b1417800035978000304e000fcff3a0088
:100e10000000060080007800010178003104e00045
:100e2000fdff3a000000510000000600881f780016
:100e30000204780008017800deff07000800400087
:100e40004f047800000006000000fa00881f7800b8
:100e500000047800ea8157003fb9970088007800c5
:100e600060712000070007000000e000020035006c
:100e70008040eb00017478004f0478000080fa0095
:100e8000000006006200fa00889fbe008a1f7800fa
:100e9000000578008104780002047800830078005f
:100ea00080f92f000f004000b10307009a979f00c0
:100eb000a9979f000000eb00b09f9f001885fb00e2
:100ec0008a04fb000a05ea004f55de0050022000ac
:100ed000808f54000d003200e10f55000b003a00e6
:100ee0000a017800880078002f9097009f91970062
:100ef00003000100a0979f000000e0008e00320078
:100f00003f9897000000e800b09f9f000a0444004b
:100f100050022000808f5400040032000900e000dd
:100f2000e6ff3a003f989700840037000000eb008e
:100f3000909f9f00809f9f00f0979f00e0979f00e9
:100f4000d0979f00c0979f000700370041c5200041
:100f5000010050000000400081c4200061007800c2
:100f6000df98970001007000d09f9f0088047800f0
:100f700009047800384578008a00fb0040c520004d
:100f8000840107000000e000f0ff3a00a1c2b300b6
:100f9000814f55000e003a00cf8897000180e9008c
:100fa000c08f9f0010007800c09f9f000000e000ed
:100fb00005003d000000ea00c09f9f005f98970079
:100fc0000020a000d09f9f000904e8000f00370018
:100fd000c09f9f000000eb0005003700f2ff2700d4
:100fe000820f5000020032006a01b9000280400006
:100ff0000904780088047800b900fb000103b100ff
:10100000e98f5000f5ff3600c09f9f00e0c2b3009b
:10101000984f1000020032000080eb0019003700ea
:10102000a0c2b300d84f100007003a00cf88970045
:101030000180e900c08f9f0010007800a09f9f00f2
:101040000804e800100037000000eb00a09f9f009c
:101050008800780005003700f3ff2700830f500059
:10106000020032006a02b900040041000104780065
:10107000880078003101fb000203b100e90f510044
:10108000f5ff3600a09f9f00984478008900fb0080
:1010900000c420003f0107000000e0000200320011
:1010a0000804e800010037008044eb00c97f9f007e
:1010b00080c6b30080cf540004003a0098cf1400db
:1010c0000a003a006640500006003700c0c6b30070
:1010d00080cf540005003a0098cf140003003a0076
:1010e00065404000c07f9f000804e8001801fb0035
:1010f000e3fb2f008f81410081f92f008f8040009a
:10110000a0f92f000f004000100007000000e000d1
:1011100009003a00e1fb2f008f804000a0f92f006a
:101120000f004000560207000000e00002003500fa
:101130000804e80061ff37000080eb004f057800ed
:101140004f04be000080fa0000000600889fbe0029
:101150008a9fbe00e4c6b300844f5100be00320037
:1011600010003c006b425200844f510018003200c6
:1011700005003c0054c2b300844f5100f600320019
:1011800084c5b3000f00370044c6b300844f51003c
:101190001400320065424200844f5100f1003a00d1
:1011a0001000370004c7b300844f5100dd00320047
:1011b0005600350065424200844f51005300320012
:1011c00063424200844f5100e6003a004f0037006e
:1011d0001181e90082087800f00090001241780047
:1011e000de00370020629000c5c6b300854f520074
:1011f00007003a0091027800648252008408780067
:101200001402be004fabde008603780014003700e6
:1012100015c7b300854f520003003a00110478004f
:101220006802540005003700a5c6b300854f520080
:1012300006003a009104780068825400840878001f
:101240005403be004402be00050037001182e900cd
:101250008408780014027800cfa2de00612bb90068
:101260000498be000690be00a060900088c6b3003f
:1012700088cf50000d00320028c6b30088cf500040
:1012800004003a000402fb00cfa2de00612bb9008b
:101290000800370048c7b30088cf50000300320071
:1012a0006644440088cf500004003a00cfa2de001c
:1012b000612bb9000498be000690be003002be004b
:1012c0002003be00f0009000e00f5200e08f5a00b3
:1012d000e00f5b00e08f5b0002003d00d4c2b30072
:1012e00008003700001290000418a300020032002a
:1012f000b4c2b300030037000408a3005100320059
:1013000004c2b30084f178004c00370020629000e2
:10131000c5c6b300854f520008003a001105780099
:1013200064025500840878001404be006055b800bb
:101330000802be000a03be001400370015c7b30040
:10134000854f520003003a009104780068825400ef
:1013500005003700a5c6b300854f520006003a00cd
:101360001105780068025500840878005403be0017
:101370004402be00050037001182e90084087800ad
:10138000140278008002eb006033b8000498be00bd
:101390000690be00a060900088c6b30088cf5000c1
:1013a0000d00320028c6b30088cf500004003a0078
:1013b0000482fb008002eb006033b80008003700b5
:1013c00048c7b30088cf5000030032006644440091
:1013d00088cf500004003a008002eb006033b80070
:1013e0000498be000690be00801090000138a30053
:1013f000140032003002be002003be00e00f520095
:10140000e08f5a00e00f5b00e08f5b000d003200c0
:1014100081c7b300814f51000300320081c5b30082
:10142000814f510007003a00f000900004c3b30060
:1014300084f178008100e80082f178008100e80002
:1014400071009800f00090008181410063009800d5
:10145000824078003e003700a0619000c4c6b3000f
:101460001181e90084cf5100220032000a003c00c3
:101470006442520084cf51002500320004c2e800cb
:1014800084cf5100130032006842520084cf5100d3
:101490001e003a000a00370044c7b30084cf510051
:1014a0001b0032006642420084cf51001800320017
:1014b0006942520084cf510014003a000500370001
:1014c00082087800920078004058900080487800a8
:1014d0002c0037008208780092007800600a9000a3
:1014e000cfa2de00612bb9008498be008690be00ba
:1014f000240037008208780092007800600990008c
:10150000cf91de008288be001e0037001181e90005
:1015100082087800920078006008900080087800c7
:10152000180037001181e900820878001202780063
:10153000cfa2de00612bb9000498be000690be0069
:10154000f0009000818141006300980081c7b300e2
:101550001c0007000b003700f000900082f17800bb
:1015600006003700f0009000818141000204e00095
:1015700001003a0052c2b300824978008100e800bd
:10158000710098000000eb004f05be004f04be0044
:1015900000000600020037000304e00006003200ed
:1015a0000001780002007800b041780081cf51003e
:1015b000f9ff3a00010037000001eb00020078005b
:1015c00000000600fc874700889fbe008a9fbe007f
:1015d0008c9fbe008e1f78000006780080c5b30087
:1015e00080cf50000a0032007740400080cf50008a
:1015f0000a0032006940400080cf50000b003200ea
:10160000f0c2200080bf9f00ae0020000a0037001b
:10161000e2c1200082bf9f0006003700f3c2200015
:1016200083bf9f008e00200003003700f4c220001b
:1016300084bf9f000e0120003c02be002c03be00b0
:101640000605be000404be0040c6b30080cf5000b3
:10165000030032006540400080cf50000b003a008c
:10166000e00f5200e08f5a00e00f5b00e08f5b005c
:1016700006003d006000b8006011b800040450008e
:10168000858458000605590087855900e80f5700e2
:101690000400320040002000f00f570038003a00ec
:1016a0000100370030002000e00f5400e08f5c00a4
:1016b000e00f5d00e08f5d0004003a00dc08900060
:1016c0008d0120000100e000060032008e00e900dc
:1016d000888060008fba9700e5c07800f1ef9f0026
:1016e0007d012000800078008100e90005003300c2
:1016f0008b05d1000a85d3008984d3000884d300e8
:10170000f9ff3700089ebe000a96be00120037009f
:101710008d06e9008e00e900848060000fb9970013
:10172000e2c1780082fd2f000f01410003f17e002d
:10173000800078008100e900050033008783d10034
:101740000683d3008582d3000482d300f9ff3700db
:10175000049ebe000696be003c02be002c03be00e6
:10176000e00f5200e08f5a00e00f5b00e08f5b005b
:101770008b0034000d00e000e5ff3c0088003700de
:101780002c60900081c6b300814f50000b003200e6
:1017900006003c000004e00008003200e6c05000f3
:1017a000814f50004e003a0004003700c1c6b3001c
:1017b000814f50004a003a00210037000800e00045
:1017c00004003a005c0890008d0120000000e00059
:1017d00006003200110009000e84d8000fb99700ee
:1017e000e2c07800f1ef9f007d01200011000900a8
:1017f0000e84d8000a003700110009000e04d8003a
:101800008d06e9000e81b900020454008fb89700dc
:1018100061417c0081fd2f008f80400082f07e00be
:10182000000478000800e000020032000d00e00033
:10183000f1ff3c00cfc4de00614db9002500370048
:10184000e00f5400e08f5c0004003a005c08900058
:101850008d0120000000e000070032006171b90036
:101860000800be00530107008fb99700e3417800dc
:10187000f3ef9f007d0120006171b9000800be00f8
:1018800078fc07000b0037006171b9000800be004a
:10189000390107008d06e90000f1b9000204540087
:1018a0000fba9700e4427c0084fd2f000f02420033
:1018b00005f27e000004be00e00f5000e08f5800eb
:1018c000020032000d00e000efff3c004fcdde00d3
:1018d0008a057800089ebe000a96be0030003700d8
:1018e000e00f5400e08f5c00e00f5d00e08f5d00d2
:1018f00004003a005c0890008d0120000000e00028
:10190000090032006172b900612bb9000800be0005
:101910000a01be00ca0107000fba970064427800ae
:10192000f4ef9f007d0120006172b900612bb900c6
:101930000800be000a01be00ba0107000d00370012
:101940006172b900612bb9000800be000a01be0037
:10195000bf0107008d06e90000f2b900040454003d
:101960008fba970065427c0085fd2f008f82420070
:1019700084f27e00009ebe000296be003c04be00c3
:101980002c05be00e00f5400e08f5c00e00f5d000e
:10199000e08f5d00020034000d00e000e8ff3c0035
:1019a000e80f570010003a000c1090000038a30018
:1019b0000d003200f78f560006003e0085fd2f0017
:1019c0008f824200e5c07e0000c3b30080cf50008c
:1019d000050032008d06e90002c3b30081fd2f002f
:1019e0008f80400082f07e0078811600120e9800f1
:1019f0006c00900083fd2f008f8141008d8041009d
:101a0000ecfc07001c089000dc089000810f5000df
:101a100006003d0000805000000e98000c10900061
:101a20000040a100001698000f0037000100e00000
:101a30000d003d008c109000f4806000f08f50008d
:101a400009003a007c099000fc00900081005100e0
:101a50000c09900082805000008050004240a90094
:101a600001003400000e98004f0778004f06be00ba
:101a70004f05be004f04be00cf01b10000000600bc
:101a80000400fa00889fbe008a9fbe008c1f780069
:101a90000004780001067800f80d900078009000ae
:101aa0008085550008089000808555001808900032
:101ab00080855500280890008085550038089000e2
:101ac000808555004808900080855500000222005e
:101ad00090bf9f0000032300a0bf9f00081090004c
:101ae0000028a30015003a000b00e00013003400aa
:101af0000b0578008a047800e20f550001003600db
:101b000029002000c801900009017800ee805700ec
:101b10005800900003000100500498000000e0000d
:101b20008c0032006808900009004000600c9800aa
:101b3000090555004240a900eeff3c0078019000e5
:101b40000200e0000c003400c80190008c00780016
:101b50005800900003000100500498008080eb00c2
:101b60000000e0007c003200e8089000780090005f
:101b700000804000600c9800880c90000900e00094
:101b80001100340009057800e28f5400010036008e
:101b90002a002000c80190000a017800ec8057005c
:101ba0005800900003000100500498000000e0007d
:101bb00068003200680890000a004000600c98003d
:101bc0008a845400edff3700180990000200e000fd
:101bd0000c003400c8019000e8009000580090000c
:101be00003000100500498008080eb000000e0003a
:101bf00059003200e808900018089000008040006a
:101c0000600c9800a80c90000900e000110034005e
:101c100009057800e28f5400010036002a002000f8
:101c2000c80190000a017800ec805700580090002d
:101c300003000100500498000000e000450032005d
:101c4000680890000a004000600c98008a845400e4
:101c5000edff3700380990000200e0000e0034006c
:101c6000e80090001808900080804000c8019000b3
:101c70005800900003000100500498008080eb00a1
:101c80000000e00034003200e808900038089000be
:101c900000804000600c9800c80c90000900e00033
:101ca0001100340009057800e28f5400010036006d
:101cb0002a002000c80190000a017800ec8057003b
:101cc0005800900003000100500498000000e0005c
:101cd00020003200680890000a004000600c980064
:101ce0008a845400edff3700081090008000eb005c
:101cf0000028a300180032000b00e000160034009a
:101d00008b04780009057800e28f5400010036004a
:101d10002a002000c80190000a017800ee805700d8
:101d20005800900003000100500498000000e000fb
:101d300008003200680890000a004000600c98001b
:101d40008a8454004240a900eeff3c008000eb0072
:101d5000010037008080eb00010078004f0678001a
:101d60004f05be004f04be000080fa0000000600d0
:101d70000108780000000600839f68000100e00071
:101d800002003d0060001000e08018000300e00049
:101d900002003d0060011100e081190031fb0700e5
:101da0004f00e00002003b0060001000e0801800df
:101db000000006002bfb07000400be000000060028
:101dc000889fbe008a9fbe0030044200b0844a0053
:101dd00030054b0090854b006000b1000898be00b4
:101de0000a90be000440e10005c8e10006d0e10011
:101df00007d8e10002003100680040001008e80048
:101e00004f05be004f04be0000000600889fbe00c4
:101e10008a9fbe003004be002005be000418540096
:101e200005985c0006185d0007985d001100200011
:101e30000440e10005c8e10006d0e10007d8e10058
:101e4000010039008000eb00108810004f05be0033
:101e50004f04be00000006001200fa00889fbe007a
:101e60008a9fbe008c9fbe00e0b79f00f1b79f0025
:101e700082bf9f0093bf9f000605be000404be0002
:101e80000000eb00d0b79f00c0b79f00b0b79f0025
:101e9000a0b79f0090b79f000006eb005fb19700ce
:101ea000cfb09700820141003fb097000200e000f0
:101eb00004003d00370007007e805700c0ff070088
:101ec00003003700330007007e805700cfff070074
:101ed000dfb697000d00e0000c0035006fb29700f0
:101ee000ffb297000fbb97009fbb97001000200028
:101ef000010020006011b8000002720081827200af
:101f000002037300838373001b0007000c06e800c4
:101f100001042000810f5600e0ff3a000d00e000b0
:101f200004003d000802be000a03be007e80570088
:101f3000a3ff07005fa897000000e00005003a003b
:101f40001fb29700afb297003fb39700cfb397008f
:101f5000090007006fb09700ffb097000fb9970016
:101f60009fb997004f06be004f05be004f04be004c
:101f70000080fa00000006000100070000000600d3
:101f8000a4b79f00b5b79f00c6b79f00d7b79f0003
:101f9000000006004f09de0082817100b3b79f0088
:101fa0004f01de008180400082807000a1b79f0059
:101fb0008fb097004f09de00000040000200700063
:101fc00090b79f007fa897004f01de0081804000fe
:101fd0008280700081b79f000d0007004f3ade003d
:101fe0000000400004007000f0af9f0008000700f0
:101ff0000402420085824a0006034b0087834b009f
:10200000dfff07000802be000a03be000000060052
:102010002fb29700bfb297004fb39700dfb397007e
:1020200000000600881f780018002000881f780034
:1020300089ff07008f87e9004f0478000000060041
:10204000801feb0084ff07008f87e9000000060077
:10205000889fbe008a9fbe00e00f5000e08f5800ae
:10206000e00f5900e08f59000c003d006044b800bb
:102070006055b8000000540081805c0002015d00e2
:1020800083815d00180020001500070008003d0056
:10209000180007000004eb00050037000004eb0007
:1020a0000f00070002003d0012000700180020008a
:1020b000dcff07000800e000060032006022b800e4
:1020c0006033b8000000520081805a0002015b00ba
:1020d00083815b004f05be004f04be000000060078
:1020e000e00f5200e08f5a00e00f5b00e08f5b00d2
:1020f000000006006044b8006055b80004025400b7
:1021000085825c0006035d0087835d000000060099
:10211000889fbe008a9fbe008c1f7800e00f500091
:10212000e08f5800e00f5900e08f59000d003d008e
:102130006044b8006055b8000000540081805c0025
:1021400002015d0083815d001c0020000820e10089
:1021500009a8e1000ab0e1000bb8e1000d003d0064
:10216000080037000006eb00e00f5200e08f5a0035
:10217000e00f5b00e08f5b0006003d006044b800ac
:102180006055b8000402540085825c0006035d00bf
:1021900087835d00aaff07000c00e0000600320004
:1021a0006022b8006033b8000000520081805a00fd
:1021b00002015b0083815b004f0678004f05be0083
:0821c0004f04be000000060000
:020000040000fa
:1021c8003c66000042c30000c3c30000c3c3000054
:1021d800c3420000663c00000c3c00000c0c0000f0
:1021e8000c0c00000c0c00000c0c00000c3f000054
:1021f8001e2700004303000003020000060400003d
:10220800081000003f7f00001e6700004303000025
:10221800060e00000703000003030000667c0000b0
:10222800060600000e16000026260000468600005e
:10223800ff060000060600001e1e000020380000f1
:102248007c0e000006020000020200004478000034
:10225800071c0000306000005ce60000c3c30000fb
:10226800c3c30000663c00007f7f000081020000bd
:102278000202000004040000080800000810000022
:102288003c620000c3c30000663800003c46000002
:10229800c3c30000623c00003c660000c3c30000ea
:1022a800c3c30000633e0000060c000018e00000f5
:1022b8000000000000000000000000000000000016
:1022c80000000000000000000000000018180000d6
:1022d80000000000000000001818000000000000c6
:1022e8000010000010280000282400003c420000d4
:1022f80042e700000000000000fc0000444000002d
:10230800487800004840000042fc0000000000003f
:10231800ffff0000ffff0000ffff0000ffff0000bd
:10232800ffff0000ffff0000410000003025000013
:1023380064000000256400000020000025640000ff
:10234800003a000000450000003000003a3000006c
:10235800303a000030300000002500006c750000a5
:0c23680000300000256c00007500000033
:020000040000fa
:102374000200fa00000f78001e007800e10f500000
:102384000f003a0051168000000028000080600011
:102394000000e00008003a00511680000000280008
:1023a4000080600000f0a7000000ea000000e900df
:1023b4004f00de00390037000000eb003700370023
:1023c4001e007800e20f50000f003a005116800002
:1023d40000002400008060000000e00008003a00d3
:1023e40051168000000024000080600000f0a70067
:1023f4000000ea000000e9004f00de00270037007b
:102404000000eb00250037001e007800e30f5000a9
:102414000f003a0051168000000022000080600086
:102424000000e00008003a0051168000000022007d
:102434000080600000f0a7000000ea000000e9004e
:102444004f00de00150037000000eb0013003700da
:102454001e007800e40f50000f003a00511680006f
:1024640000002100008060000000e00008003a0045
:1024740051168000000021000080600000f0a700d9
:102484000000ea000000e9004f00de00030037000e
:102494000000eb00010037000000eb000080fa00b0
:1024a400000006000000fa00004080000080fa00ee
:1024b400000006000000fa00304080000080fa00ae
:1024c400000006000000fa0010002000a8ff07002a
:1024d4000000e0000e003200004080000000e80030
:1024e400004088000628ef000828ef000140800023
:1024f4003000200000017800110009008200d8009b
:102504008000fd0000408800800c20006406070065
:102514002000200096ff07000000e00019003200b0
:102524000828ef0000408000e10f500006003a0048
:102534006040800000f0a7000000ea000000e9000d
:102544004f00de006040880000408000e20f500031
:1025540001003a0036020700004080000000e0005d
:1025640006003a003040800000f0a7000000ea00b6
:102574000000e9004f00de0030408800800c20009d
:10258400470607003000200079ff07000000e00044
:10259400080032005040800000f0a7000000ea006c
:1025a4000000e9004f00de0050408800800c20004d
:1025b4003b060700400020006dff07000000e0001c
:1025c4001d00320000408000e20f50001a0032006b
:1025d400404080000000e800404088004040800007
:1025e400e20f5000010034000828ef000040800092
:1025f4000000e0000e003a00304080000000e000df
:102604000b003a00e04080000000e00005003a00c2
:10261400700a2000e003070010002000e04088005a
:1026240003003700600a2000db0307001c28ef00ca
:10263400800c20001a0607000080fa000000060043
:102644002000fa00c3050700004f7800c605070004
:1026540010479800c9050700204798000000eb00c8
:10266400a4030700604080000000e0000400320082
:102674000001eb0061072000801929007a0407009b
:102684001e407800e94f500008003e009e80fb0089
:1026940077004700811f7800a1192900811f780065
:1026a400e8f90700e4875700070037009e80fb0025
:1026b40077004700811f7800e1192900811f780005
:1026c400e0f90700e48757001e409000e94f5000ee
:1026d40009003e001e4090008080fb007a00470005
:1026e400811f7800a1192900811f7800d5f90700fe
:1026f400e4875700080037001e4090008080fb00ec
:102704007a004700811f7800e1192900811f7800b1
:10271400ccf90700e48757002e409000e94f5000a1
:1027240009003e002e4090008080fb007d004700a1
:10273400811f7800111a2900811f7800c1f9070050
:10274400e4875700080037002e4090008080fb008b
:102754007d004700811f7800e1192900811f78005e
:10276400b8f90700e48757006300470042012000de
:102774008000eb0095f90700fd0047006300470067
:1027840099f9070063004700a1f90700e300470037
:102794000080400022002000511a290084f907001b
:1027a400fa004700630047008ff907006300470001
:1027b40097f90700e3004700008040002200200052
:1027c400511a29007af90700f7004700630047000f
:1027d40085f9070063004700c2012000c101200001
:1027e400210407000080fa00000006002200fa001d
:1027f400605f9800715f9800026798000000eb002a
:102804003c030700004080000000e00004003a00a0
:102814000001eb008000eb00701a2900120407008d
:1028240000408000e10f500004003a00c201200083
:102834008000eb00801929000b0407006040800031
:102844000000e000040032000001eb0061072000fa
:1028540080192900040407006e589000e94f5000c5
:1028640009003e006e5890008080fb007400470011
:10287400811f7800a1192900811f780071f90700d0
:10288400e4875700080037006e5890008080fb00f2
:1028940074004700811f7800e1192900811f780026
:1028a40068f90700e48757007e589000e94f50000c
:1028b40009003e007e5890008080fb0077004700ae
:1028c400811f7800a1192900811f78005df9070094
:1028d400e4875700080037007e5890008080fb0092
:1028e40077004700811f7800e1192900811f7800d3
:1028f40054f90700e48757000e609000e94f500038
:1029040009003e000e6090008080fb007a004700c2
:10291400811f7800e1192900811f780049f9070017
:10292400e4875700080037000e6090008080fb00a9
:102934007a004700811f7800e1192900811f78007f
:1029440040f90700e4875700420120008000eb00b3
:102954000e0078001df907007a0047008000780017
:102964000e00780020f907000e00780028f907000f
:102974000000470022002000511a29000cf907002a
:1029840077004700800078000e00780016f90700f1
:102994000e0078001ef90700000047002200200006
:1029a400511a290002f907007400470080007800da
:1029b4000e0078000cf90700c2012000c1012000bc
:1029c4000e007800a80307000080fa00000006004b
:1029d4000000fa00bbfe0700ce0007001040800094
:1029e4000000e0000f003a0020408000e10f50009a
:1029f4000c003a00004080000000e00003003a00b0
:102a0400304080000000e00006003a0018c8bf0013
:102a14004f04070019c8bf00400407001ac8bf00cc
:102a24003204070010408000e10f500004003a0017
:102a340000408000e20f500001003a00f30007005c
:102a440098fe07000000e00053003a0099fe0700da
:102a54000000e00003003a00f9fe07000428ef003c
:102a6400aa003700204080000000e00006003a0081
:102a7400b80407001ae8b700bb04070019e8b70058
:102a8400be04070018e8b7008281200012417800d4
:102a940091812000914078001ac8bf0053ff0700bd
:102aa400504080000000e0003700320040408000c9
:102ab4000000e0000f003a0018c8bf000040e80022
:102ac40018e8b70018c8bf000081fb00b0aa2a00ac
:102ad4000010b8004408de007800b9000000780057
:102ae400000051000040780018e8b7000a28ef0001
:102af4002500370040408000e10f500010003a00ec
:102b040019c8bf000040e80019e8b70019c8bf00a1
:102b14000081fb00908828000010b800c508de0082
:102b2400c00320000088b9000000780000005100b4
:102b34000040780019e8b7000a28ef0012003700b7
:102b440040408000e20f50000f003a001ac8bf0056
:102b54000040e8001ae8b7001ac8bf000081fb0073
:102b6400908828000010b800c508de00c0032000cb
:102b74000088b9000000780000005100004078008f
:102b84001ae8b7000a28ef0010002000204088004f
:102b94000228ef005d00370042fe0700e10f5000fd
:102ba4004b003a00e1802000914078000fc8bf003c
:102bb40001417800804078000040eb000bff0700e3
:102bc400504080000000e0003700320040408000a8
:102bd4000000e0000f003a000ec8bf000040e8000b
:102be4000ee8b7000ec8bf000081fb00b0aa2a009f
:102bf4000010b8004408de007800b9000000780036
:102c040000005100004078000ee8b7000a28ef00e9
:102c14002500370040408000e10f500010003a00ca
:102c24000fc8bf000040e8000fe8b7000fc8bf009e
:102c34000081fb00908828000010b800c508de0061
:102c4400c00320000088b900000078000000510093
:102c5400004078000fe8b7000a28ef0012003700a0
:102c640040408000e20f50000f003a000ec8bf0041
:102c74000040e8000ee8b7000ec8bf000081fb006a
:102c8400b0aa2a000010b8004408de007800b90099
:102c94000000780000005100004078000ee8b70002
:102ca4000a28ef000828ef0002fe07000000e000f9
:102cb40002003a000428ef0014003700100020003e
:102cc4002040880010002000104088000f003700ca
:102cd400f4fd0700e20f50000c003a00600007000a
:102ce400504080000000e00008003200210880000d
:102cf40000002800008060000000e00001003200b5
:102d04004b000700410007000a28ef000080fa008a
:102d1400000006000000fa0018040700e18020000b
:102d240091407800814f500019003a000e040700ca
:102d3400f180200091407800814f500014003a0047
:102d440004040700e34f500011003e00604080007f
:102d54000000e0000e003200fe0307006140600046
:102d64000080fb000000e9004f00de000040780016
:102d74000080fb00610060004200dd00511680000d
:102d84000120a100010070005016880001003700e6
:102d9400ca42a9000080fa00000006000000fa0000
:102da4004116800000002f000100700040168800ca
:102db4006960a8006980a80069a0a80069c0a8008b
:102dc4000080fa00000006000000fa0080142000d1
:102dd4001008880060002000200888000021ef000f
:102de4009460a80021058000f0ff28008080600026
:102df40000002300010070002005880005e1a900ff
:102e04008460a9000080fa00000006000000fa00b7
:102e14001428ef001628ef00c2012000c101200091
:102e2400901a2900900207000080fa0000000600b2
:102e34000000fa000021ef002108800000002800b3
:102e4400008060000000e0000200320005e1a900fb
:102e54000100370005e1a8000080fa000000060028
:102e64001800fa000000eb00a20107001028ef0090
:102e7400a2408000b3408000028fbe001e00be004e
:102e840066f60700a2702d0033c22300c0f60700c7
:102e940044f6070020079800310798002e009000a0
:102ea400be009000c203200003002000ecf60700df
:102eb4005af607005bf607003af607004007980049
:102ec40051079800de009000c00320000088b9007c
:102ed400000178004e0090006000b9000000780006
:102ee40000014100ce009000c00320000008b8009b
:102ef40001014100820078002e019000be01900083
:102f0400000051008180590044f6070045f607008f
:102f140024f607002007980031079800be009000af
:102f2400400620000088b900000178002e009000bf
:102f34006000b9000000780000014100ae0090007c
:102f4400400620000008b80001014100820078001a
:102f54003e021000ae821800de00900000772100cf
:102f64000088b900000178004e0090006000b900ac
:102f74000000780000014100ce009000007721009d
:102f84000008b8000101410082007800001f5200cf
:102f940001975a006c004700720020008000eb008b
:102fa4008af70700730147004e009000de0090008e
:102fb400809fbe00101b2900801f7800020078004b
:102fc400a0f70700e6875700f30047006c004700ae
:102fd40085f707006c0047008df70700ec004700f9
:102fe4000080400022002000511a290070f70700d9
:102ff4002e019000be0190009000200001002000ee
:10300400800f5100818f59000a003e007301470070
:103014002e009000be009000809fbe00501b29002f
:10302400801f78000200780086f70700e6875700c3
:1030340009003700730147002e009000be00900085
:10304400809fbe00101b2900801f780002007800ba
:103054007cf70700e6875700f30047006c00470041
:1030640061f707006c00470069f70700ec004700b0
:103074000080400022002000511a29004cf707006c
:103084001e01be009000200001002000800f5100ae
:10309400818f590009003e00730147001e00be00e5
:1030a400809fbe00501b2900801f7800020078001a
:1030b40064f70700e68757000800370073014700ec
:1030c4001e00be00809fbe00101b2900801f7800d8
:1030d400020078005bf70700e6875700f30047001b
:1030e4006c00470040f707006c004700c201200055
:1030f400c1012000dc0107000080fa000000060086
:103104000000fa0030ff070024ff07000080fa00e7
:10311400000006000200fa00113a8000f00b2000c3
:1031240000816000600420007105200023742000e9
:1031340080497800814978008249780041368000ce
:10314400f00f2e00808060000070200001007000ed
:10315400403688004136800000fe2f000080600069
:103164000030a0004036880041358000f00f2e006a
:103174000080600000b0a00040358800103a800054
:10318400000178000260a0006004200071052000a6
:1031940023742000804978008149780082497800ae
:1031a4004222ef0042a2a8004342a9004302a80021
:1031b40042c2a9001112800030fe2f00008060007e
:1031c4004001b30010128800101280003000b300d8
:1031d400101288004422ef004022ef000112800008
:1031e40030fe2f00008060004001b3000012880010
:1031f40041058000f0f82f00808060000005200069
:10320400010070004005880041e2a8008540a90043
:103214009540a800caa2a900a0002000200307002e
:10322400caa2a800a00020001d030700caa2a9008a
:10323400a00020001a030700caa2a800a0002000d2
:1032440017030700e00a2000d3000700500d2000f8
:10325400d100070000082000cf000700800a2000ea
:10326400cd000700f0032000cb000700300d200044
:10327400c90007000000eb00c7000700000420009d
:10328400c50007000000eb00c3000700d0082000c1
:10329400c100070040012000bf0007000002200019
:1032a400bd0007000000eb00bb000700100a20006f
:1032b400b9000700800c2000b7000700a00d200013
:1032c400b500070020012000b3000700100820000b
:1032d400b1000700f00c2000af000700900d2000a3
:1032e400ad000700100f2000ab000700b00d200058
:1032f400a900070000042000a7000700400a2000de
:10330400a5000700600a2000a3000700e0022000d7
:10331400a1000700600a20009f000700f00a2000b7
:103324009d0007000000eb00000f78000500370047
:10333400e08120001e0040008040eb00014878003e
:103344001e0fe800f03f20009e007800808f5000a0
:10335400f7ff34000080fa00000006001000fa00b5
:103364005007980061079800720798000000eb006e
:10337400000f78006e009000cf80de0024f5070077
:103384000200200003102400a3f4070025f5070021
:10339400e3f40700100798001e0090004700dd00ca
:1033a400000f78005e0090001e0f40001000200007
:1033b40020079800ee009000700028000080600054
:1033c4000000e00004003d000000e90081ff2f0040
:1033d400008070000000e800ae0090000008dd00ee
:1033e400200798007e009000e10f50000c003a0086
:1033f400e08120001e0040001040780080407800ea
:103404002e0090000040780000c0700080407800da
:10341400e08120001e00400001487800330037009e
:103424001000200030079800e08120001e004000ba
:10343400104078008080fb006e019000700028002e
:10344400000061000000e00004003d000000e9000d
:1034540082ff2f00000071000000e8000088de00f9
:10346400004f9800ee00900070002800008060007b
:103474000000e00004003d000000e90081ff2f008f
:10348400008070000000e800be0090000008dd002d
:1034940030079800e08120001e00400010407800b2
:1034a400804078003e0090000040780000c060003a
:1034b400004f98000e4890000004e0000b0032001a
:1034c400e08120001e004000104078008040780019
:1034d4002e0090000040780000c068008040780012
:1034e400e08120001e004000014878000080fa00be
:1034f400000006000600fa00200798002e00900045
:103504000000e00003003a000000eb001007980000
:1035140002003700f00f2000100798000000eb00b5
:10352400000f7800060037001e00900080407800ed
:10353400e08120001e004000014878001e0fe800d2
:10354400f03f20009e007800808f5000f6ff34008a
:103554000080fa00000006000200fa000000eb0000
:10356400000f780006003700e08120001e004000b4
:10357400104078000080fb00110007001e0fe800d7
:10358400f03f20009e007800808f5000f6ff34004a
:103594000080fa00000006000200fa00000f780024
:1035a400ca42a900cac2a9009e007800411288003c
:1035b400100020003a0207000080fa000000060014
:1035c4000200fa00000f7800ca42a900cac2a8008b
:1035d4009e007800411288000080fa000000060076
:1035e4001400fa00604f9800010f9800120f980021
:1035f4000000eb00000f78000000eb00300798009b
:103604000008200040079800ee48900010c3b30063
:1036140080cf500003003a00000f290050079800a3
:103624005d003700ee48900020c3b30080cf500007
:1036340003003a00c00f29005007980056003700d5
:10364400ee48900030c3b30080cf500003003a002e
:1036540080102900500798004f003700ee48900072
:1036640040c3b30080cf500003003a00401129004a
:103674005007980048003700ee48900050c3b3004c
:1036840080cf500003003a00001229005007980030
:1036940041003700ee48900060c3b30080cf500073
:1036a40003003a00c0122900500798003a0037007e
:1036b400ee48900070c3b30080cf500003003a007e
:1036c400801329005007980033003700ee4890001b
:1036d40080c3b30080cf500003003a004014290097
:1036e400500798002c003700ee48900090c3b300b8
:1036f40080cf500003003a000015290050079800bd
:1037040025003700ee48900000c3b30080cf50007e
:1037140003003a00400e2900500798001e003700ad
:10372400ee48900000c2b30080cf500003003a007e
:10373400c01529005007980017003700ee48900084
:10374400a0c3b30080cf500003003a0080162900c4
:103754005007980010003700ee48900010c4b300e2
:1037640080cf500003003a0040172900500798000a
:1037740009003700ee48900050c4b30080cf5000d9
:1037840003003a000018290050079800020037008f
:10379400c0182900500798009e089000210798003f
:1037a4002a0037008e089000110798001f00370088
:1037b4001e007800de0090000080400090407800f9
:1037c400414f98004e4890008080fb004e009000ce
:1037d40000806000300798003e0090000000e00088
:1037e4000200340010002000300798003e019000d1
:1037f400ae0090001e009000d8fe07004e0090001e
:103804000080d100400798004e0090000000e000c6
:1038140003003a0000082000400798001e0fe8004b
:103824001e0090000000e800100798000e089000a9
:10383400e80040001e009000808f5000dcff3c0038
:103844002e0090000000e800200798001e08900059
:10385400ec0040002e009000808f5000d1ff3c000f
:103864000080fa00000006000a00fa002007980011
:1038740031079800420798002e00900064f5070075
:10388400100798000000eb00000f78001e003700be
:103894001e007800ae0090000080400010407800c8
:1038a4004e019000be0090004dff07003e009000c6
:1038b40069004000300798003e009000e900400095
:1038c40000082000808f5000050034000000eb0049
:1038d400300798004e0090006d00400040079800ab
:1038e4004e009000ed00400000042000808f500046
:1038f400040034000000eb00400798000000eb00d7
:10390400300798001e0fe8001e0090009e0078000b
:10391400808f5000deff35000080fa0000000600b2
:103924000800fa0040479800514798006247980001
:103934000500fc0050052000303b8800a10a20004f
:10394400313b880027a6a80027e6a9003131800072
:103954000030200001007000303188004e4090009b
:103964008080fb00d0cc2c000008b8004308de00a7
:10397400004078000080fb00cf80de00a4f3070045
:10398400a8f3070066f30700004078008040780041
:10399400400020000008dd00004f78004e409000f9
:1039a4000081fb00d0cc2c000010b8004308de00de
:1039b4006a00b9000000780000005100004078005f
:1039c4001e4f40005e4090008080fb00d0cc2c0055
:1039d4000008b8004308de00004078000080fb00c7
:1039e400cf80de008af307008ef307004cf3070054
:1039f4000040780080407800400020000008dd008e
:103a0400104798005e4090000081fb00d0cc2c0051
:103a14000010b8004308de006a00b9000000780016
:103a240000005100004078009e40900000c040001b
:103a3400104798006e4090008080fb00d0cc2c0092
:103a44000008b8004308de00004078000080fb0056
:103a5400cf80de006ef3070072f3070030f3070037
:103a64000040780080407800400020000008dd001d
:103a7400204798006e4090000081fb00d0cc2c00c1
:103a84000010b8004308de006a00b90000007800a6
:103a94000000510000407800ae40900000c040009b
:103aa40020479800c00920002031880030022100fe
:103ab400203188001e80fb000010b00020318800f7
:103ac4001e4090000080fb00c800dd002e409000e6
:103ad4000080fb00008040002031880027e6a80019
:103ae40027a6a9000080fa00000006000200fa00e0
:103af400004f7800a0c520001e487800b0c5200003
:103b040090407800c0c52000104078001e41780025
:103b140083ff07000080fa00000006000200fa009c
:103b2400004f7800b0c520001e487800a0c52000d2
:103b340090407800c0c52000104078000141780012
:103b44009e40780076ff07000080fa00000006001f
:103b54000200fa00004f7800c0c520001e4878001b
:103b6400a0c5200090407800b0c520001040780027
:103b740001417800804078001e40780068ff07000b
:103b84000080fa00000006000c00fa0000000000ab
:103b94003131800000002100008060000000e0005e
:103ba400fbff3a003131800000302000010070003a
:103bb4003031880021318000010f780021318000ec
:103bc40011079800213180002107980021318000dd
:103bd40031079800be009000f007200000806000cc
:103be4004400de00004078006a00b900000078005c
:103bf400804078003e009000004078006f406000f4
:103c040000c04000004f98003e0090004c00de00d1
:103c1400004078006a00b900000078008040780015
:103c24003e0090004800de00004078006f406000d5
:103c340000c04000104f98002e0090004400de00a9
:103c440000407800634060006a00b900000078001a
:103c5400804078002e009000004078006f406000a3
:103c640000c04000204f9800a0c520008e4890005e
:103c740001487800b0c520009e48900001487800b3
:103c8400c0c52000ae489000014878000080fa00ca
:103c9400000006000000fa000500fc0050052000aa
:103ca400303b8800a10a2000313b880027a6a800e9
:103cb400e0c520008040eb0001487800c0c520002a
:103cc4008040eb0001487800b0c520008040eb0044
:103cd40001487800f0c520008040eb0001487800de
:103ce400a0c520008040eb0001487800d0c520002a
:103cf4008040eb000148780000c620008040eb00c3
:103d04000148780027e6a8002746a900fc22a8005d
:103d1400103a8000000178000210a0006004200026
:103d240071052000237420008049780081497800bf
:103d340082497800c882a80027a6a9000080fa005a
:103d4400000006000000fa008fff07000080fa0060
:103d5400000006000000fa00a0c520001040780012
:103d64000080fa00000006000000fa00b0c5200040
:103d7400104078000080fa00000006000000fa00fd
:103d8400c0c52000104078000080fa000000060042
:020000040000fa
:103d94001e080000000400000000000000080000ed
:103da4001e000000000000005a0c00000800000083
:103db40000000000400c00001a0000000200000097
:103dc400686a6c00747a4c00000001000002000074
:103dd4000400080000100000000020002b2d230028
:103de400300000001e0c0000220000000200000051
:103df400303132003334350036373800394142002f
:103e04004344450046003000313233003435360037
:103e140037383900616263006465660000000000a1
:043e2400000000009a
:020000040000fa
:103e28000000fa00213a8000f08f2f000080600027
:103e3800203a8800f0ff290060198800c822ef00a6
:103e4800ca22ef00c842a9000080fa00000006005c
:103e58000400fa00000f780011079800f0ff07002f
:103e68008bff0700aafc0700a4fc07000000eb007a
:103e78009ffd0700c0c0b30034ff07000040eb00ff
:103e880025ff07000040eb0017ff0700acff070005
:103e9800b0fd0700cdfa0700fcff37000200fa006a
:103ea800000f780003003700793e09000000000089
:103eb8001e0fe9001e0078000000e000faff3a003b
:083ec8000080fa000000060072
:020000040000fa
:020000040001f9
:0457f8000ff90000a5
:020000040000fa
:020000040001f9
:0457fc007f3f0000eb
:00000001FF
