:020000040000fa
:080000000002040000000000f2
:020000040000fa
:04000800e002000012
:020000040000fa
:04000c00e00200000e
:020000040000fa
:04001000e00200000a
:020000040000fa
:04001400e002000006
:020000040000fa
:04001800e002000002
:020000040000fa
:04001c00e0020000fe
:020000040000fa
:04002000e0020000fa
:020000040000fa
:04002400e0020000f6
:020000040000fa
:04002800e0020000f2
:020000040000fa
:04002c00e0020000ee
:020000040000fa
:04003000e0020000ea
:020000040000fa
:04003400e0020000e6
:020000040000fa
:04003800e0020000e2
:020000040000fa
:04003c00e0020000de
:020000040000fa
:04004000e0020000da
:020000040000fa
:04004400e0020000d6
:020000040000fa
:04004800e0020000d2
:020000040000fa
:04004c00e0020000ce
:020000040000fa
:04005000c8020000e2
:020000040000fa
:04005400e0020000c6
:020000040000fa
:04005800e0020000c2
:020000040000fa
:04005c00e0020000be
:020000040000fa
:04006000e0020000ba
:020000040000fa
:04006400e0020000b6
:020000040000fa
:04006800e0020000b2
:020000040000fa
:04006c00e0020000ae
:020000040000fa
:04007000e0020000aa
:020000040000fa
:04007400e0020000a6
:020000040000fa
:04007800e0020000a2
:020000040000fa
:04007c00e00200009e
:020000040000fa
:04008000e00200009a
:020000040000fa
:04008400e002000096
:020000040000fa
:04008800e002000092
:020000040000fa
:04008c00e00200008e
:020000040000fa
:04009000e00200008a
:020000040000fa
:04009400e002000086
:020000040000fa
:04009800e002000082
:020000040000fa
:04009c00e00200007e
:020000040000fa
:0400a000e00200007a
:020000040000fa
:0400a400e002000076
:020000040000fa
:0400a800e002000072
:020000040000fa
:0400ac00e00200006e
:020000040000fa
:0400b000e00200006a
:020000040000fa
:0400b400e002000066
:020000040000fa
:0400b800e002000062
:020000040000fa
:0400bc00e00200005e
:020000040000fa
:0400c000e00200005a
:020000040000fa
:0400c400e002000056
:020000040000fa
:0400c800e002000052
:020000040000fa
:0400cc00e00200004e
:020000040000fa
:0400d000e00200004a
:020000040000fa
:0400d400e002000046
:020000040000fa
:0400d800e002000042
:020000040000fa
:0400dc00e00200003e
:020000040000fa
:0400e000e00200003a
:020000040000fa
:0400e400e002000036
:020000040000fa
:0400e800e002000032
:020000040000fa
:0400ec00e00200002e
:020000040000fa
:0400f000e00200002a
:020000040000fa
:0400f400e002000026
:020000040000fa
:0400f800e002000022
:020000040000fa
:0400fc00e00200001e
:020000040000fa
:04010000e002000019
:020000040000fa
:04010400e002000015
:020000040000fa
:04010800e002000011
:020000040000fa
:04010c00e00200000d
:020000040000fa
:04011000e002000009
:020000040000fa
:04011400e002000005
:020000040000fa
:04011800e002000001
:020000040000fa
:04011c00e0020000fd
:020000040000fa
:04012000e0020000f9
:020000040000fa
:04012400e0020000f5
:020000040000fa
:04012800e0020000f1
:020000040000fa
:04012c00e0020000ed
:020000040000fa
:04013000e0020000e9
:020000040000fa
:04013400e0020000e5
:020000040000fa
:04013800e0020000e1
:020000040000fa
:04013c00e0020000dd
:020000040000fa
:04014000e0020000d9
:020000040000fa
:04014400e0020000d5
:020000040000fa
:04014800e0020000d1
:020000040000fa
:04020800e002000010
:020000040000fa
:04020c00e00200000c
:020000040000fa
:04021000e002000008
:020000040000fa
:04021400e002000004
:020000040000fa
:04021800e002000000
:020000040000fa
:04021c00e0020000fc
:020000040000fa
:04022000e0020000f8
:020000040000fa
:04022400e0020000f4
:020000040000fa
:04022800e0020000f0
:020000040000fa
:04022c00e0020000ec
:020000040000fa
:04023000e0020000e8
:020000040000fa
:04023400e0020000e4
:020000040000fa
:04023800e0020000e0
:020000040000fa
:04023c00e0020000dc
:020000040000fa
:04024000e0020000d8
:020000040000fa
:04024400e0020000d4
:020000040000fa
:04024800e0020000d0
:020000040000fa
:04024c00e0020000cc
:020000040000fa
:04025000e0020000c8
:020000040000fa
:04025400e0020000c4
:020000040000fa
:04025800e0020000c0
:020000040000fa
:04025c00e0020000bc
:020000040000fa
:04026000e0020000b8
:020000040000fa
:04026400e0020000b4
:020000040000fa
:04026800e0020000b0
:020000040000fa
:04026c00e0020000ac
:020000040000fa
:04027000e0020000a8
:020000040000fa
:04027400e0020000a4
:020000040000fa
:04027800e0020000a0
:020000040000fa
:04027c00e00200009c
:020000040000fa
:04028000e002000098
:020000040000fa
:04028400e002000094
:020000040000fa
:04028800e002000090
:020000040000fa
:04028c00e00200008c
:020000040000fa
:04029000e002000088
:020000040000fa
:04029400e002000084
:020000040000fa
:04029800e002000080
:020000040000fa
:04029c00e00200007c
:020000040000fa
:0402a000e002000078
:020000040000fa
:0402a400e002000074
:020000040000fa
:0402a800e002000070
:020000040000fa
:0402ac00e00200006c
:020000040000fa
:0402b000e002000068
:020000040000fa
:0402b400e002000064
:020000040000fa
:0402b800e002000060
:020000040000fa
:0402bc00e00200005c
:020000040000fa
:0402c000e002000058
:020000040000fa
:0402c400e002000054
:020000040000fa
:0402c800e002000050
:020000040000fa
:0402cc00e00200004c
:020000040000fa
:0402d000e002000048
:020000040000fa
:0402d400e002000044
:020000040000fa
:0402d800e002000040
:020000040000fa
:0402dc00e00200003c
:020000040000fa
:0402e000e002000038
:020000040000fa
:0402e400e002000034
:020000040000fa
:0402e800e002000030
:020000040000fa
:0402ec00e00200002c
:020000040000fa
:0402f000e002000028
:020000040000fa
:0402f400e002000024
:020000040000fa
:0402f800e002000020
:020000040000fa
:0402fc00e00200001c
:020000040000fa
:04030000e002000017
:020000040000fa
:04030400e002000013
:020000040000fa
:04030800e00200000f
:020000040000fa
:04030c00e00200000b
:020000040000fa
:04031000e002000007
:020000040000fa
:04031400e002000003
:020000040000fa
:04031800e0020000ff
:020000040000fa
:04031c00e0020000fb
:020000040000fa
:04032000e0020000f7
:020000040000fa
:04032400e0020000f3
:020000040000fa
:04032800e0020000ef
:020000040000fa
:04032c00e0020000eb
:020000040000fa
:04033000e0020000e7
:020000040000fa
:04033400e0020000e3
:020000040000fa
:04033800e0020000df
:020000040000fa
:04033c00e0020000db
:020000040000fa
:04034000e0020000d7
:020000040000fa
:04034400e0020000d3
:020000040000fa
:04034800e0020000cf
:020000040000fa
:100400000fc020000e7f22000e01880000000000b7
:10041000000020000000e000020032000001200087
:100420002002880014000700670007000000e000b9
:1004300003003a00a0b720000100200002003700ae
:100440000000200001002000810f70000100320038
:1004500014000700000020000000e000020032004d
:100460000000020000000000640b02000000000019
:100470000040da000000fe004440a900000920000e
:100480000000e0000300320000002000a00188000e
:100490004440a800000006008a1f78008b1f7800e7
:1004a0000000060091018800800478000000eb0045
:1004b0001a003700e284440032a0b4009905ba0063
:1004c000e284440032a0b4009906ba00e2844400f9
:1004d00032a0b4000006eb00476fde00fd07b2005b
:1004e000636ce10003003a00ebff07000000eb0043
:1004f0000a003700606ce10004003a00005deb0088
:100500008b05e900fdff3e00040037006168e10053
:10051000010032000086eb000b00070019c7ba008b
:100520001905ba000e04e00003003a000a00e000da
:10053000e0ff3a0000000600fe07b2009e018800be
:100540008a047800f5ff3700395dba008b05e900b1
:100550000c003200295dba008b05e900080032006a
:100560000c00e00003003a00e284440032a0b40032
:10057000f5ff370019ddba008b05e900faff3a00f4
:100580008904e800e184440032a0b40000000600c1
:10059000801f78003400f80000002000a0018800cf
:1005a0000200fa008540a90040128000000f780088
:1005b0000080fa003400f9004f0078000040060087
:1005c0000040da000000fe0000000500889fbe0029
:1005d0008a9fbe008c1f7800a5000700ac00330086
:1005e00003866c006450e1002e0032006420e100bc
:1005f000330032006150e1002f0032006120e10041
:100600003100320085855500eb07b000090020005d
:1006100008042000050037000804440089844c00c9
:100620000a0031000603430087834b00000153009a
:1006300081815b00f8ff33000203be000800a000c8
:100640000804440089844c00f6ff3900c639dd00f7
:100650008301730001003200130020008904d100df
:100660000884d3000998a300050032000800a70001
:100670000300a0008904d1000884d3008b05e800a2
:100680008904d1000884d3000001eb000281d2006c
:100690003c00070001f0a1000cf0a70001f0a00051
:1006a000840037006420e100860032000801be00ab
:1006b0000200be00f7ff37006120e1008100320038
:1006c0006000b800f3ff37000000200001f82700a9
:1006d000f0ff37000001be00500007000470a700c3
:1006e00003f0a1006509b100160032000d003500cd
:1006f0006828e10006003500f0ff2f00f1ff270019
:100700000300e00013003b0001002800000005008a
:1007100000004000818048008502e900fcff3a00ab
:1007200008003700f88f420002003c008000eb0018
:10073000000005008100d1000080d3008502e800a0
:10074000fcff3a000300e00002003b0060001000e4
:10075000e0801800000006004f89de00820178006a
:10076000e00037000001eb00b70007000400320092
:100770000200200003f8230001f0a7005400070046
:100780000000060081002000618055000b003d0044
:100790000b00200061fe2f000100e1001d0034006d
:1007a00082817100610164008904d1000884d30052
:1007b0000000e800faff3a007100200061006400c8
:1007c0000300700002006000090032006104440070
:1007d000e0844c000988a500050032008b05e80084
:1007e0006808e10002003a008904d1000884d300bf
:1007f000f20f20000258e10005003d00c75ddd005a
:10080000f907b20089807500080078000000060032
:100810000bf827008b00780000000500c70ade00f7
:10082000f107b200f50fb20008003200e1cf42003c
:10083000020032000170a00024000500810f70004a
:10084000010032000408050044000500810f70001b
:1008500002003a00140005008502e9000000400093
:1008600081c04800fcff3b000170a000240005008f
:100870000004be00e9ff07000003be000405be003f
:100880000200be00e5ff0700844f7500000006006f
:100890000200be006450e100050036006420e10063
:1008a000020036000968a30001003a000800be00fb
:1008b0000160a0004f0678004f05be004f04be0047
:1008c00000000600f0ff2f00f1ff2700f9ff3700be
:1008d00003f0a200889fbe008a9fbe008c1f780094
:1008e000e3ff0700eaff33006450e1004f003200ed
:1008f0006420e1005200320003826c0007003b00dc
:100900000905d0000306d000820f54000c065d00dc
:1009100002003900020032008901780003067800e5
:100920008582550004003d000003fd008103fd00a9
:100930008502ea008b854200840f720002003b00b2
:1009400060001000e08018006011b8000005eb00a6
:100950007a28e1000a00390006007800c75ddd0052
:10096000f707b200878075002d0037008281710083
:100970000a017800610560008180d1000080d30009
:100980008502e900f9ff3b00060440008784480027
:1009900002003b0060041400e0841c000988a300ee
:1009a000070032008a817100828171006101640058
:1009b0008904d1000884d3008b05e80017003700b4
:1009c0000978a30013003a000b00e0001300340084
:1009d0008b05e9000804440089844c000a44740033
:1009e0000978a3000d003a000b00e0000700340076
:1009f0008b05e9000804440089844c0001003a009a
:100a00000b0020000978a300f7ff32000001eb0083
:100a100002003700828171000a01780059ff070047
:100a20000cf0a70001f0a000a2ff37006420e10055
:100a300002003a00838f6c00a2ff33000801be0061
:100a40000200be009bff3700889fbe008a9fbe0049
:100a50000003be0071ff0700850578008281520007
:100a6000020020006220e10004003a00f307b10018
:100a7000040035007718e100040035000600be00d0
:100a8000140037006000b8000f003700f50f200099
:100a9000faff2f008502d1000a85d3008301e90007
:100aa000fcff3b008184620000046500890f740034
:100ab000f2ff32008582ea000a85ea008184620042
:100ac000000465002fff070007f0a70001f0a00059
:100ad0000081eb000200e0004f05be004f04be00a5
:100ae00000000600881f7800030478000300e0007f
:100af00007003d0060001000e08018006001190050
:100b0000e081190002003b0001f02d0003003700d6
:100b10000400070008f0a70001f0a0004f047800cf
:100b200000000600889fbe008a9fbe000082700001
:100b30000402710004827100260032000004be002d
:100b40000200be006011b8006b0920009502200071
:100b50000182cf000a0039000541b1000082cf00b8
:100b6000070039000541b1000982cf0004003900b7
:100b70000541b1000882cf00010039000541b100f4
:100b800005425200120032000a003b0082817100cf
:100b9000610164008100d1000080d3008984d3000a
:100ba0000884d3008b05e8000442e800f7ff3a0010
:100bb000070037000804440089844c000000480006
:100bc000818048008b05e9000442e900f9ff3a0002
:100bd000ecfe07004f05be004f04be0000000600fb
:100be00080007800010178003104e000fdff3a0048
:080bf0000000510000000600a6
:020000040000fa
:100bf8003c66000042c30000c3c30000c3c300003a
:100c0800c3420000663c00000c3c00000c0c0000d5
:100c18000c0c00000c0c00000c0c00000c3f000039
:100c28001e27000043030000030200000604000022
:100c3800081000003f7f00001e670000430300000b
:100c4800060e00000703000003030000667c000096
:100c5800060600000e160000262600004686000044
:100c6800ff060000060600001e1e000020380000d7
:100c78007c0e00000602000002020000447800001a
:100c8800071c0000306000005ce60000c3c30000e1
:100c9800c3c30000663c00007f7f000081020000a3
:100ca8000202000004040000080800000810000008
:100cb8003c620000c3c30000663800003c460000e8
:100cc800c3c30000623c00003c660000c3c30000d0
:100cd800c3c30000633e0000060c000018e00000db
:100ce800ffff0000ffff0000ffff0000ffff000004
:100cf800ffff0000ffff0000313200003334000026
:100d08003536000037380000393000006600000032
:020000040000fa
:100d18000200fa00000f780003003700793e09004e
:100d2800000000001e0fe9001e0078000000e0002f
:100d3800faff3a000080fa00000006000200fa00fc
:100d4800113a8000f00b2000008160006004200050
:100d580071052000237420008049780081497800bb
:100d68008249780041368000f00f2e0080806000b4
:100d78000070200001007000403688004136800075
:100d880000fe2f00008060000030a0004036880080
:100d980041358000f00f2e000080600000b0a000f8
:100da80040358800103a8000000178000260a000f9
:100db8006004200071052000237420008049780019
:100dc80081497800824978004222ef0042a2a800b7
:100dd8004342a9004302a80042c2a90011128000a0
:100de80030fe2f00008060004001b3001012880020
:100df800101280003000b300101288004422ef0067
:100e08004022ef000112800030fe2f0000806000b9
:100e18004001b3000012880041e2a8008540a90003
:100e28009540a800ca82a900a0002000b8ff0700ca
:100e3800ca82a800a0002000b5ff0700ca82a90046
:100e4800a0002000b2ff0700ca82a800a00020006e
:100e5800afff0700e00a2000d1000700500d200076
:100e6800cf00070000082000cd000700800a2000fe
:100e7800cb000700f0032000c9000700300d200058
:100e8800c70007000000eb00c500070000042000b1
:100e9800c30007000000eb00c1000700d0082000d5
:100ea800bf00070040012000bd000700000220002d
:100eb800bb0007000000eb00b9000700100a200083
:100ec800b7000700800c2000b5000700a00d200027
:100ed800b300070020012000b1000700100820001f
:100ee800af000700f00c2000ad000700900d2000b7
:100ef800ab000700100f2000a9000700b00d20006c
:100f0800a700070000042000a5000700400a2000f1
:100f1800a3000700600a2000a1000700e0022000eb
:100f28009f000700f00a20009d0007000000eb006a
:100f3800000f780005003700008020001e004000e8
:100f48008040eb00014878001e0fe800f03f2000c9
:100f58009e007800808f5000f7ff34000080fa0070
:100f6800000006001000fa0050079800610798007a
:100f7800720798000000eb00000f78006e009000e8
:100f8800cf80de00f2fd07000200200003102400dd
:100f98008cfd0700f1fd0700ccfd07001007980045
:100fa8001e0090004700dd00000f78005e009000f2
:100fb8001e0f40001000200020079800ee0090004f
:100fc80070002800008060000000e00004003d0080
:100fd8000000e90081ff2f00008070000000e80099
:100fe800ae0090000008dd00200798007e00900009
:100ff800e10f50000c003a00008020001e00400065
:1010080010407800804078002e0090000040780062
:1010180000c0700080407800008020001e00400062
:10102800014878003300370010002000300798008e
:10103800008020001e004000104078008080fb00e7
:101048006e01900070002800000061000000e000c0
:1010580004003d000000e90082ff2f00000071003d
:101068000000e8000088de00004f9800ee009000c5
:1010780070002800008060000000e00004003d00cf
:101088000000e90081ff2f00008070000000e800e8
:10109800be0090000008dd003007980000802000a6
:1010a8001e00400010407800804078003e0090000c
:1010b8000040780000c06000004f98000e48900083
:1010c8000004e0000b003200008020001e004000f9
:1010d80010407800804078002e0090000040780092
:1010e80000c0680080407800008020001e0040009a
:1010f800014878000080fa00000006000600fa00a7
:10110800200798002e0090000000e00003003a003d
:101118000000eb001007980002003700f00f2000d5
:10112800100798000000eb00000f78000600370059
:101138001e00900080407800008020001e004000c3
:10114800014878001e0fe800f03f20009e0078005c
:10115800808f5000f6ff34000080fa00000006007f
:101168000200fa000000eb00000f780006003700cc
:10117800008020001e004000104078000080fb0026
:10118800110007001e0fe800f03f20009e007800c5
:10119800808f5000f6ff34000080fa00000006003f
:1011a8000200fa00000f7800ca42a900cac2a900ca
:1011b8009e0078004112880040062000d4fe0700f7
:1011c8000080fa00000006000200fa00000f780014
:1011d800ca42a900cac2a8009e007800411288002d
:1011e8000080fa00000006001400fa00604f980022
:1011f800010f9800120f98000000eb00000f780014
:101208000000eb0030079800000820004007980015
:10121800ee48900010c3b30080cf500003003a009e
:10122800806028005007980041003700ee48900081
:1012380020c3b30080cf500003003a00406128006b
:10124800500798003a003700ee48900030c3b300ca
:1012580080cf500003003a00006228005007980031
:1012680033003700ee48900040c3b30080cf5000f1
:1012780003003a00c0622800500798002c0037008d
:10128800ee48900050c3b30080cf500003003a00ee
:10129800806328005007980025003700ee4890002a
:1012a80060c3b30080cf500003003a0040642800b8
:1012b800500798001e003700ee48900070c3b30036
:1012c80080cf500003003a000065280050079800be
:1012d80017003700ee48900080c3b30080cf50005d
:1012e80003003a00c0652800500798001000370036
:1012f800ee48900090c3b30080cf500003003a003e
:10130800806628005007980009003700ee489000d2
:1013180000c3b30080cf500003003a00c05f28002c
:1013280050079800020037004067280050079800cf
:101338009e089000210798002a0037008e08900028
:10134800110798001f0037001e007800de0090008b
:101358000080400090407800414f98004e4890002f
:101368008080fb004e0090000080600030079800ed
:101378003e0090000000e000020034001000200051
:10138800300798003e019000ae0090001e009000cb
:10139800f4fe07004e0090000080d100400798003e
:1013a8004e0090000000e00003003a000008200012
:1013b800400798001e0fe8001e0090000000e8009b
:1013c800100798000e089000e80040001e009000ea
:1013d800808f5000dcff3c002e0090000000e800e9
:1013e800200798001e089000ec0040002e00900096
:1013f800808f5000d1ff3c000080fa0000000600fa
:101408000a00fa0020079800310798004207980060
:101418002e009000f0fd0700100798000000eb0078
:10142800000f78001e0037001e007800ae00900004
:1014380000804000104078004e019000be009000ef
:1014480069ff07003e0090006900400030079800df
:101458003e009000e900400000082000808f500006
:10146800050034000000eb00300798004e009000a3
:101478006d004000400798004e009000ed004000cd
:1014880000042000808f5000040034000000eb00ae
:10149800400798000000eb00300798001e0fe80096
:1014a8001e0090009e007800808f5000deff3500ff
:1014b8000080fa00000006000a00fa0080022000fe
:1014c800000f7800a0002000100798000000eb0033
:1014d800200798000000eb00300798000008200063
:1014e80040079800a0002000100798002800370047
:1014f80080022000000f78001e003700816028005d
:101508002e00900000804000104078008080fb0092
:101518004e00900000806000300798003e00900068
:101528000000e0000200340010002000300798009e
:101538003e0190009e0090001e00780089fe070082
:1015480007ff07004e0090000080d1004007980078
:101558004e0090000000e00005003a00000820005e
:10156800400798002e0090000000e800200798002f
:101578001e0fe800f00220009e007800808f5000c7
:10158800deff34001e0090000000e80010079800fd
:101598001e009000f50f5000d5ff34000080fa00bf
:1015a800000006000a00fa0080022000000f780000
:1015b800a0002000100798000000eb00200798000a
:1015c8000000eb0030079800000820004007980052
:1015d800a000200010079800280037008002200093
:1015e800000f78001e003700416128002e0090008f
:1015f80000804000104078008080fb004e00900082
:1016080000806000300798003e0090000000e00075
:101618000200340010002000300798003e019000be
:101628009e0090001e0078004efe0700ccfe0700ca
:101638004e0090000080d100400798004e009000b6
:101648000000e00005003a0000082000400798006c
:101658002e0090000000e800200798001e0fe80008
:10166800f00220009e007800808f5000deff3400da
:101678001e0090000000e800100798001e0090006f
:10168800f50f5000d5ff34000080fa000000060076
:101698000000fa00213a8000f08f2f0000806000df
:1016a800203a8800f0ff290060198800c822ef005e
:1016b800ca22ef00c842a9000080fa000000060014
:1016c8000400fa00000f780011079800f0ff0700e7
:1016d8009afd07000001eb008000eb00006828007d
:0c16e80047ff07009efe0700feff3700d2
:020000040000fa
:1016f40000080000000400000000000000000000da
:020000040000fa
:020000040001f9
:0457f8000ff90000a5
:020000040000fa
:020000040001f9
:0457fc007f3f0000eb
:00000001FF
